:100000000C9434000C94E0030C9451000C945100B7
:100010000C9451000C9451000C9451000C9451001C
:100020000C9451000C9451000C9451000C9451000C
:100030000C9451000C9451000C9451000C945100FC
:100040000C9451000C9451000C9451000C945100EC
:100050000C9451000C9451000C9451000C945100DC
:100060000C9451000C94510011241FBECFEFD8E026
:10007000DEBFCDBF11E0A0E0B1E0E0E5F8E002C0F6
:1000800005900D92AC37B107D9F721E0ACE7B1E0AC
:1000900001C01D92A939B207E1F70E9475030C94C3
:1000A00026040C9400000F931F93CF938C01C0E0A3
:1000B00009C08C2F90E0F801E80FF91F60810E94C1
:1000C0001804CF5FC630A8F3CF911F910F91089508
:1000D000EF92FF920F931F93CF937C01C0E00AC071
:1000E0008C2F90E08701080F191F0E941004F8015F
:1000F0008083CF5FC630A0F3CF911F910F91FF9007
:10010000EF900895CF93DF9300D000D000D0CDB70B
:10011000DEB7CE0101960E94680020E010C0822F59
:1001200090E0E1E0F0E0EC0FFD1FE80FF91F3081F7
:10013000FC01EF5FFE4F8081381305C02F5F263032
:1001400070F380E001C081E026960FB6F894DEBF20
:100150000FBECDBFDF91CF9108951092B90088E412
:100160008093B80084E08093BC00089584EA809373
:10017000BC008091BC008823E4F7089584E9809353
:10018000BC0008958093BB0084E88093BC008091FC
:10019000BC008823E4F70895CF93C82F0E94B600CF
:1001A0008EE40E94C2008C2F88600E94C2000E94D0
:1001B000BE00CF910895CF93807FC82FC62B8C2F80
:1001C00084600E94CC0085E08A95F1F700008C2FB6
:1001D0008B7F0E94CC0087EC90E00197F1F700C084
:1001E0000000CF910895CF93C82F60E0807F0E94D8
:1001F000DB0060E08C2F8295807F0E94DB00CF9136
:100200000895CF93C82F61E0807F0E94DB0061E0FA
:100210008C2F8295807F0E94DB00CF91089581E032
:100220000E94F3008FE39FE10197F1F700C0000007
:1002300008952FEF80E792E0215080409040E1F751
:1002400000C0000060E080E30E94DB008FE19EE4DC
:100250000197F1F700C0000060E080E30E94DB003E
:100260009FEF22E587E0915020408040E1F700C0F9
:10027000000060E080E30E94DB0060E080E20E941A
:10028000DB008FE99FE00197F1F700C0000088E2F2
:100290000E94F3008CE00E94F30086E00E94F300CD
:1002A0000E940F0108950F931F93CF93DF938C014A
:1002B000C0E0D0E003C00E9401012196F801EC0FDC
:1002C000FD1F80818111F7CFDF91CF911F910F9199
:1002D0000895811102C080E801C080EC860F0E9461
:1002E000F30008950E94AD000E9419010E947A0354
:1002F0000E94EF038AB188608AB984B1806384B9AF
:100300000E948200811104C087E091E00E945300A6
:100310007894109296010E940F018EE091E00E9465
:10032000530185B1806285B985B18F7E85B98BB166
:10033000877F8BB908950F931F93CF938C01C0E0F3
:1003400012C00E94870390ED980F9A3060F4F80174
:10035000EC0FF11D80836C2F81E00E9469018AE21D
:100360000E940101CF5FC63060F3CF911F910F91C2
:100370000895CF93DF93CDB7DEB762970FB6F894A9
:10038000DEBF0FBECDBF809196019091000189170D
:10039000B9F1809300018130A1F018F0823009F1A9
:1003A0002FC00E940F018EE091E00E94530185B1A1
:1003B000806285B985B18F7E85B98BB1877F8BB916
:1003C0001FC00E940F0188E191E00E94530185B196
:1003D000806185B985B18F7D85B98BB1877F8BB9F8
:1003E0000FC00E940F018FE191E00E94530185B17F
:1003F000806185B985B18F7D85B98BB188608BB9F6
:1004000080919601813009F46DC038F0823009F492
:10041000BFC0833009F41CC15FC10E9487038823D9
:1004200009F45AC1E3E9F1E09181908322812183AB
:10043000828330ED380F3A30D8F56091920191E027
:10044000960F90939201E62FF0E0E457FE4F8083E1
:1004500081E00E9469018AE20E940101809192017B
:10046000863009F039C1CE0101960E94680046E04D
:1004700050E0BE016F5F7F4F8CE891E00E94030463
:10048000892B21F481E0809396010FC00E940F0117
:100490008BE291E00E9453012FEF8DE399E421500C
:1004A00080409040E1F700C000001092920114C11A
:1004B00030919201332349F0109292010E940F0172
:1004C0008EE091E00E94530107C1913409F004C10C
:1004D000223409F001C1813409F0FEC083E0809329
:1004E0009601FAC00E94FE03882331F010928B011E
:1004F00082E080939601F0C00E94870390ED980FF0
:100500009A3008F03FC060918B0191E0960F909374
:100510008B01E62FF0E0EB57FE4F808381E00E94D5
:1005200069018AE20E94010180918B01863009F005
:10053000D3C0CE0101960E94680046E050E0BE01A3
:100540006F5F7F4F85E891E00E940304892B29F4B7
:1005500010928B0110929601BFC010928B010E94E5
:100560000F018BE291E00E9453012FEF8DE399E49C
:10057000215080409040E1F700C000008FEF809351
:100580000001AAC0882309F4A7C010928B01A4C05F
:1005900080918301909184010196909384018093CE
:1005A0008301883C910540F01092840110928301F0
:1005B00095B180E3892785B90E94870390ED980F54
:1005C0009A3008F03FC06091820191E0960F9093BD
:1005D0008201E62FF0E0E458FE4F808381E00E9424
:1005E00069018AE20E94010180918201863009F04E
:1005F00073C0CE0101960E94680046E050E0BE0143
:100600006F5F7F4F8CE791E00E940304892B29F4F0
:1006100010928201109296015FC0109282010E9496
:100620000F018BE291E00E9453012FEF8DE399E4DB
:10063000215080409040E1F700C000008FEF809390
:1006400000014AC0882309F447C01092820144C0C7
:100650000E940F018CE391E00E945301CE010D96A0
:100660000E949B010E940F018CE491E00E945301C3
:10067000CE0107960E949B0146E050E0BE01695FF3
:100680007F4FCE010D960E940304892BA1F4CE0169
:100690000D960E9453000E940F0186E591E00E9492
:1006A00053012FEF8DE399E4215080409040E1F712
:1006B00000C000000FC00E940F0186E691E00E947A
:1006C00053012FEF8DE399E4215080409040E1F7F2
:1006D00000C000001092960162960FB6F894DEBF3B
:1006E0000FBECDBFDF91CF9108950E9472010E948D
:1006F000B901FDCF8AB1806F8AB98BB1806F8BB998
:1007000084B1807F84B985B18F6085B9089540E058
:1007100050E080E036C09BB1906F9BB99BB1E42F55
:10072000F0E0BF016C5F7F4F21E030E002C0220F9C
:10073000331F6A95E2F7209529232BB9A7ECB0E087
:100740001197F1F700C0000090E018C023B1692FA5
:1007500070E030E0092E02C0359527950A94E2F743
:1007600020FD0BC0EE0FFF1FEE0FFF1FE459FE4FE1
:10077000E60FF71F808151E003C09F5F943030F394
:100780004F5F443010F4552331F29BB1906F9BB909
:10079000882381F090919701891781F0BFEF29EFAD
:1007A00030E0B15020403040E1F700C000008093BD
:1007B000970108951092970180E0089580E00895D0
:1007C0001F920F920FB60F9211248F9381E08093A6
:1007D00098018F910F900FBE0F901F9018958AB1BE
:1007E0008B7F8AB98BB184608BB9E9E6F0E08081B8
:1007F000836080838DB381608DBB08958091980163
:10080000109298010895FB01DC0104C08D910190C4
:10081000801921F441505040C8F7881B990B089566
:10082000F999FECF92BD81BDF89A992780B50895B8
:10083000262FF999FECF1FBA92BD81BD20BD0FB6FC
:10084000F894FA9AF99A0FBE01960895F894FFCF9A
:10085000FF31323334353631323334353600446586
:100860007361726D61646F0041726D61646F00202D
:10087000202020414C41524D45210053656E686156
:1008800020496E636F727265746121004E6F7661EC
:100890002073656E6861202836293A00436F6E66C2
:1008A00069726D653A0053656E686120616C7465AC
:1008B0007261646121004572726F210031323341EF
:0C08C00034353642373839432A3023449F
:00000001FF
