:100000000C9434000C94D9040C9451000C945100BD
:100010000C9451000C9451000C9451000C944D041C
:100020000C9451000C9451000C9451000C9451000C
:100030000C9451000C9451000C94A0040C945100A9
:100040000C9451000C9451000C9451000C945100EC
:100050000C9451000C9451000C9451000C945100DC
:100060000C9451000C94510011241FBECFEFD8E026
:10007000DEBFCDBF12E0A0E0B1E0E6EEFEE002C0E0
:1000800005900D92A035B107D9F722E0A0E5B2E0C6
:1000900001C01D92AE36B207E1F70E94CE010C946A
:1000A00071070C9400000F931F93CF938C01C0E055
:1000B00009C08C2F90E0F801E80FF91F60810E94C1
:1000C0006307CF5FC630A8F386E090E00E945B072D
:1000D0008A3A29F06AEA86E090E00E946307CF91AD
:1000E0001F910F910895EF92FF920F931F93CF935B
:1000F0007C01C0E00AC08C2F90E08701080F191F17
:100100000E945B07F8018083CF5FC630A0F3CF91D8
:100110001F910F91FF90EF90089586E090E00E946C
:100120005B0791E08A3A09F090E0892F089580E01A
:1001300090E005C00196813D27E0920730F42091C0
:10014000BC002223BCF780E0089581E0089510925E
:10015000B90088E48093B80084E08093BC000895DF
:1001600084EA8093BC000E949700089584E98093FC
:10017000BC0008958093BB0084E88093BC000E947B
:100180009700811107C09091B900987F983219F0BB
:1001900081E0089581E00895CF93C82F0E94B000B8
:1001A0008EE40E94BA008C2F88600E94BA000E94E0
:1001B000B600CF910895CF93807FC82FC62B8C2F88
:1001C00084600E94CC0085E08A95F1F700008C2FB6
:1001D0008B7F0E94CC0087EC90E00197F1F700C084
:1001E0000000CF910895CF93C82F60E0807F0E94D8
:1001F000DB0060E08C2F8295807F0E94DB00CF9136
:100200000895CF93C82F61E0807F0E94DB0061E0FA
:100210008C2F8295807F0E94DB00CF91089581E032
:100220000E94F3008FE39FE10197F1F700C0000007
:1002300008952FEF80E792E0215080409040E1F751
:1002400000C0000060E080E30E94DB008FE19EE4DC
:100250000197F1F700C0000060E080E30E94DB003E
:100260009FEF22E587E0915020408040E1F700C0F9
:10027000000060E080E30E94DB0060E080E20E941A
:10028000DB008FE99FE00197F1F700C0000088E2F2
:100290000E94F3008CE00E94F30086E00E94F300CD
:1002A0000E940F0108950F931F93CF93DF938C014A
:1002B000C0E0D0E003C00E9401012196F801EC0FDC
:1002C000FD1F80818111F7CFDF91CF911F910F9199
:1002D0000895811102C080E801C080EC860F0E9461
:1002E000F30008950F931F93CF93DF938C01D62FC4
:1002F00080ED840F8A3058F4F801408360E081E09B
:100300000E9469018AE20E940101C1E001C0C0E0CF
:100310000E9492048823E1F390ED980F9A3078F4CC
:10032000CD17B0F7F801EC0FF11D80836C2F81E041
:100330000E9469018AE20E940101CF5FE9CF843403
:1003400079F4CC2369F0C1506C2F81E00E946901DF
:1003500080E20E94010187E091E00E94AB05D8CFC6
:100360008A3281F48EE091E00E94AB0508C0C15052
:100370006C2F81E00E94690180E20E940101C1119D
:10038000F6CFC6CF833221F68BE191E00E94AB0518
:100390008C2FDF91CF911F910F910895CF93DF9311
:1003A000CDB7DEB72C970FB6F894DEBF0FBECDBF2A
:1003B0000E94A7000E94190160E875E280E090E0C9
:1003C0000E940F050E94C5040E947A040E94E8045E
:1003D0008AB188608AB984B1806384B90E948D0033
:1003E000811109C086E291E00E9453006AEA86E02A
:1003F00090E00E94630778948DE291E00E94AB0543
:1004000010925C020E940F0188E491E00E94530167
:1004100088E491E00E94AB0585B1806285B985B121
:100420008F7E85B98BB1877F8BB980915C0290916B
:1004300006018917A1F1809306018130C1F018F0FF
:10044000823049F12CC00E940F0188E491E00E94A3
:10045000530182E591E00E94AB0585B1806285B9C8
:1004600085B18F7E85B98BB1877F8BB918C00E940B
:100470000F0184E691E00E9453018BE691E00E9417
:10048000AB0585B1806185B985B18F7D85B98BB1AB
:10049000877F8BB904C08AE791E00E94AB05809109
:1004A0005C02813009F483C020F0823009F449C134
:1004B000BCCF0E949204882309F466C0E0E5F2E014
:1004C0009181908392819183828320ED280F2A303D
:1004D000F0F5482F66E0CE0101960E947201863049
:1004E00059F5CE0107960E94730046E050E0BE0128
:1004F000695F7F4FCE0101960E944C05892B41F424
:1005000089E891E00E94AB0581E080935C028DCF89
:100510000E940F0183EA91E00E94530182EA91E078
:100520000E94AB052FEF8DE399E42150804090406D
:10053000E1F700C0000079CF0E940F0188E491E04C
:100540000E94530188E491E00E94AB056ECF913484
:1005500009F06BCF813409F068CF84EB91E00E9401
:10056000AB050E940F018DEC91E00E9453012FEF2B
:1005700083ED90E3215080409040E1F700C00000FF
:1005800082E080935C0251CF80915002813409F067
:100590004CCF80915102823409F047CF80915202B2
:1005A000813409F042CF82E080935C023ECF80919B
:1005B0005B02811128C00E94F704882321F181E0A9
:1005C00080935B020E94CE0460935702709358029E
:1005D0008093590290935A020E94CE046093530272
:1005E0007093540280935502909356028BB18860A9
:1005F0008BB90E940F0184ED91E00E94530184EDBC
:1006000091E00E94AB0580915B02882309F44EC003
:100610000E94CE0400915702109158022091590275
:1006200030915A02DC01CB01801B910BA20BB30B62
:1006300080319742A105B105A8F010925B028BB101
:10064000877F8BB90E940F0184E691E00E945301DD
:1006500084E691E00E94AB0585B1806185B985B1E2
:100660008F7D85B90E94CE040091530210915402EF
:100670002091550230915602DC01CB01801B910B79
:10068000A20BB30B843F9140A105B10590F00E94ED
:10069000CE0460935302709354028093550290935A
:1006A000560295B180E3892785B903C08FEF809307
:1006B00006010E94920490ED980F9A30F0F5482FB1
:1006C00066E0CE0101960E947201863091F5CE015E
:1006D00007960E94730046E050E0BE01695F7F4FBD
:1006E000CE0101960E944C05892B61F48CED91E0BE
:1006F0000E94AB0510925B028BB1877F8BB9109281
:100700005C0293CE0E940F0183EA91E00E945301A4
:1007100082EA91E00E94AB058FEF9DE329E48150CE
:1007200090402040E1F700C000008FEF8093060169
:100730007CCE8FEF8093060178CE8FEF80930601F9
:1007400074CE0E940F0188EF91E00E94530188EF60
:1007500091E00E94AB0540E066E0CE0107960E9462
:100760007201863019F010925C025FCE0E940F0178
:1007700089E092E00E94530188E092E00E94AB057C
:1007800040E066E0CE0101960E947201863019F0C9
:1007900010925C024ACE46E050E0BE016F5F7F4F90
:1007A000CE0107960E944C05892BC1F4CE01079615
:1007B0000E9453000E940F0184E192E00E945301C5
:1007C00083E192E00E94AB058FEF9DE329E4815025
:1007D00090402040E1F700C0000017C084E292E0A2
:1007E0000E94AB050E940F0189E392E00E94530131
:1007F00088E392E00E94AB058FEF9DE329E48150EE
:1008000090402040E1F700C0000010925C020DCE45
:1008100060E03CC085B18F6085B925B1E62FF0E07E
:1008200088E090E0062E02C0959587950A94E2F73D
:100830008095822385B987EC90E00197F1F700C09D
:10084000000040E020C059B1A42FB0E080E890E063
:100850009C01042E02C0359527950A94E2F7852F56
:1008600090E082239323892B69F485B18F6085B949
:10087000EE0FFF1FEE0FFF1FE15CFD4FAE0FBF1F1E
:100880008C9108954F5F4430F0F26F5F643010F246
:1008900085B18F6085B980E008951F920F920FB6E1
:1008A0000F9211242F933F934F935F936F937F93F6
:1008B0008F939F93AF93BF93EF93FF930E9408048E
:1008C000882329F090915D02891380935E028093C2
:1008D0005D02FF91EF91BF91AF919F918F917F91B9
:1008E0006F915F914F913F912F910F900FBE0F909D
:1008F0001F90189584B18F6084B985B18F6085B9D8
:100900008AB18F708AB98BB1806F8BB982E0809386
:10091000B00097E09093B1009CE99093B30080936E
:1009200070000895CF93C0915E02CC2331F01092F5
:100930005E028C2F90E00E94A4058C2FCF91089529
:100940001F920F920FB60F9211248F939F93AF9324
:10095000BF9380915F0290916002A0916102B0917B
:1009600062020196A11DB11D80935F029093600207
:10097000A0936102B0936202BF91AF919F918F915A
:100980000F900FBE0F901F90189582E084BD93E0EA
:1009900095BD99EF97BD80936E000895F89460918E
:1009A0005F0270916002809161029091620278947E
:1009B00008951F920F920FB60F9211248F9381E02A
:1009C000809363028F910F900FBE0F901F90189528
:1009D0008AB18B7F8AB98BB18B7F8BB9E9E6F0E066
:1009E0008081836080838DB381608DBB0895F8948E
:1009F0008091630210926302789408959091C000F0
:100A000095FFFCCF8093C60080E090E00895809130
:100A1000C0008823E4F78091C60090E008959B0110
:100A2000AC0160E472E48FE090E00E942A0521505E
:100A300031093093C5002093C40088E18093C10040
:100A400086E08093C20067E075E08EEF94E00E943C
:100A500059050895A1E21A2EAA1BBB1BFD010DC06A
:100A6000AA1FBB1FEE1FFF1FA217B307E407F5075E
:100A700020F0A21BB30BE40BF50B661F771F881F3A
:100A8000991F1A9469F760957095809590959B01D0
:100A9000AC01BD01CF010895FB01DC0104C08D91C3
:100AA0000190801921F441505040C8F7881B990BE0
:100AB00008950F931F93CF93DF93009731F461153F
:100AC000710519F480E090E03AC08B01EC016EE012
:100AD00070E081E090E00E94DB05FC01892B91F33E
:100AE00080E883830115110571F01387028781E87F
:100AF00083838091640290916502892B21F4F093A5
:100B00006502E09364022097C9F0D187C087838192
:100B1000826083838091660290916702892B71F4D1
:100B2000F0936702E09366028091680290916902F7
:100B3000892B21F4F0936902E0936802CF01DF91E1
:100B4000CF911F910F910895609166027091670295
:100B50000E941F0708950F931F93CF93DF93E09197
:100B60006602F0916702238121FF1BC08C01D0E057
:100B7000C0E0F80181918F01609166027091670277
:100B8000DB011896ED91FC911997882331F00995B6
:100B9000892B79F3DFEFCFEFECCF8AE00995892B32
:100BA00019F08FEF9FEF02C08D2F9C2FDF91CF9117
:100BB0001F910F9108950F931F93CF93DF93869FFB
:100BC0008001879F100D969F100D1124C8010E946F
:100BD000F705EC01009729F0A80160E070E00E94A1
:100BE0001807CE01DF91CF911F910F9108950F93B8
:100BF0001F93CF93DF938230910510F482E090E051
:100C0000E0916C02F0916D0220E030E0A0E0B0E0F5
:100C1000309719F14081518102811381481759079A
:100C2000C8F08417950769F4109731F012960C9369
:100C3000129713961C9327C000936C0210936D02B9
:100C400022C02115310519F04217530718F49A01F3
:100C5000BD01EF01DF01F801DBCF21153105F9F00E
:100C6000281B390B2430310580F48A819B81611562
:100C7000710521F0FB019383828304C090936D0280
:100C800080936C02FE01329644C0FE01E20FF31F16
:100C90008193919322503109398328833AC020915E
:100CA0006A0230916B02232B41F4209102013091B2
:100CB000030130936B0220936A022091000130916E
:100CC00001012115310541F42DB73EB740910401D2
:100CD00050910501241B350BE0916A02F0916B02E3
:100CE000E217F307A0F42E1B3F0B2817390778F003
:100CF000AC014E5F5F4F2417350748F04E0F5F1F62
:100D000050936B0240936A028193919302C0E0E09A
:100D1000F0E0CF01DF91CF911F910F910895CF9314
:100D2000DF93009709F481C0FC013297138212828D
:100D3000A0916C02B0916D02109781F420813181F5
:100D4000820F931F20916A0230916B022817390796
:100D500051F5F0936B02E0936A0267C0ED0120E069
:100D600030E0CE17DF0740F44A815B819E014115D8
:100D70005105F1F0EA01F5CFD383C283408151815F
:100D8000840F951FC817D90759F488819981840F5A
:100D9000951F0296918380838A819B8193838283AE
:100DA0002115310529F4F0936D02E0936C023DC0EA
:100DB000E901FB83EA8349915991C40FD51FEC17D0
:100DC000FD0761F480819181840F951F0296E901EE
:100DD00099838883828193819B838A83E0E0F0E01A
:100DE00012968D919C911397009719F0FD01DC01EB
:100DF000F7CF8D919C9111979D012E5F3F4F820FF0
:100E0000931F20916A0230916B022817390769F409
:100E1000309729F410926D0210926C0202C0138276
:100E20001282B0936B02A0936A02DF91CF91089572
:100E3000DC0101C06D9341505040E0F708950F93DD
:100E40001F93CF93DF93FB01238121FD03C08FEF1D
:100E50009FEF2CC022FF16C0468157812481358127
:100E60004217530744F4A081B1819D012F5F3F4F8A
:100E7000318320838C93268137812F5F3F4F3783C7
:100E8000268314C08B01EC01FB010084F185E02D69
:100E90000995892BE1F6D80116968D919C911797AB
:100EA000019617969C938E931697CE01DF91CF9162
:100EB0001F910F910895F999FECF92BD81BDF89AC7
:100EC000992780B50895262FF999FECF1FBA92BDB4
:100ED00081BD20BD0FB6F894FA9AF99A0FBE01961B
:060EE0000895F894FFCF15
:100EE60000006E022000FF44656C65746500427563
:100EF60066666572206C696D706F00436F6E666919
:100F0600726D61646F003132333435360053697364
:100F160074656D6120646520416C61726D65204960
:100F26006E69636961646F0044657361726D6164C3
:100F36006F0045737461646F3A2044455341524DC6
:100F460041444F0041726D61646F00457374616482
:100F56006F3A2041524D41444F0045737461646FAE
:100F66003A20434F4E464947000A53656E68612052
:100F7600636F7272657461202D2041726D616E64BB
:100F86006F000A53656E686120496E636F72726501
:100F96007461210053657175656E63696120414115
:100FA60020646574656374616461202D20436F6EEF
:100FB60066696700414C41524D4521000A53656EF2
:100FC600686120636F7272657461202D20446573B9
:100FD60061726D616E646F004E6F76612073656E2F
:100FE6006861202836293A000A436F6E6669726D79
:100FF600653A000A53656E686120616C74657261BA
:101006006461210053656E686173206E616F2063B1
:101016006F6E666572656D000A4572726F210031EA
:1010260032334134353642373839432A3023440087
:00000001FF
