:100000000C9434000C94C9030C9451000C945100CE
:100010000C9451000C9451000C9451000C9451001C
:100020000C9451000C9451000C9451000C9451000C
:100030000C9451000C9451000C9451000C945100FC
:100040000C9451000C9451000C9451000C945100EC
:100050000C9451000C9451000C9451000C945100DC
:100060000C9451000C94510011241FBECFEFD8E026
:10007000DEBFCDBF11E0A0E0B1E0E6E2F8E002C0F3
:1000800005900D92A637B107D9F721E0A6E7B1E0B8
:1000900001C01D92AE37B207E1F70E94B4010C9483
:1000A00011040C9400000F931F93CF938C01C0E0B8
:1000B00009C08C2F90E0F801E80FF91F60810E94C1
:1000C0000304CF5FC630A8F386E090E00E94FB03F4
:1000D0008A3A29F06AEA86E090E00E940304CF9110
:1000E0001F910F910895EF92FF920F931F93CF935B
:1000F0007C01C0E00AC08C2F90E08701080F191F17
:100100000E94FB03F8018083CF5FC630A0F3CF913C
:100110001F910F91FF90EF90089586E090E00E946C
:10012000FB0391E08A3A09F090E0892F089580E07E
:1001300090E005C00196813D27E0920730F42091C0
:10014000BC002223BCF780E0089581E0089510925E
:10015000B90088E48093B80084E08093BC000895DF
:1001600084EA8093BC000E949700089584E98093FC
:10017000BC0008958093BB0084E88093BC000E947B
:100180009700811107C09091B900987F983219F0BB
:1001900081E0089581E00895CF93C82F0E94B000B8
:1001A0008EE40E94BA008C2F88600E94BA000E94E0
:1001B000B600CF910895CF93807FC82FC62B8C2F88
:1001C00084600E94CC0085E08A95F1F700008C2FB6
:1001D0008B7F0E94CC0087EC90E00197F1F700C084
:1001E0000000CF910895CF93C82F60E0807F0E94D8
:1001F000DB0060E08C2F8295807F0E94DB00CF9136
:100200000895CF93C82F61E0807F0E94DB0061E0FA
:100210008C2F8295807F0E94DB00CF91089581E032
:100220000E94F3008FE39FE10197F1F700C0000007
:1002300008952FEF80E792E0215080409040E1F751
:1002400000C0000060E080E30E94DB008FE19EE4DC
:100250000197F1F700C0000060E080E30E94DB003E
:100260009FEF22E587E0915020408040E1F700C0F9
:10027000000060E080E30E94DB0060E080E20E941A
:10028000DB008FE99FE00197F1F700C0000088E2F2
:100290000E94F3008CE00E94F30086E00E94F300CD
:1002A0000E940F0108950F931F93CF93DF938C014A
:1002B000C0E0D0E003C00E9401012196F801EC0FDC
:1002C000FD1F80818111F7CFDF91CF911F910F9199
:1002D0000895811102C080E801C080EC860F0E9461
:1002E000F30008950F931F93CF93DF938C01D62FC4
:1002F00080ED840F8A3058F4F801408360E081E09B
:100300000E9469018AE20E940101C1E001C0C0E0CF
:100310000E9470038823E1F390ED980F9A3078F4EF
:10032000CD17B0F7F801EC0FF11D80836C2F81E041
:100330000E9469018AE20E940101CF5FE9CF843403
:1003400059F4CC2349F0C1506C2F81E00E9469011F
:1003500080E20E940101DCCF8334D1F68C2FDF9143
:10036000CF911F910F910895CF93DF93CDB7DEB753
:100370002C970FB6F894DEBF0FBECDBF0E94A7002A
:100380000E9419010E9463030E94D8038AB1886009
:100390008AB984B1806384B90E948D00811109C03B
:1003A00081E091E00E9453006AEA86E090E00E94BA
:1003B0000304789410927B010E940F0188E091E081
:1003C0000E94530185B1806285B985B18F7E85B960
:1003D0008BB1877F8BB980917B0190910001891748
:1003E000B9F1809300018130A1F018F0823009F159
:1003F0002FC00E940F0188E091E00E94530185B157
:10040000806285B985B18F7E85B98BB1877F8BB9C5
:100410001FC00E940F0182E191E00E94530185B14B
:10042000806185B985B18F7D85B98BB1877F8BB9A7
:100430000FC00E940F0189E191E00E94530185B134
:10044000806185B985B18F7D85B98BB188608BB9A5
:1004500080917B01813009F457C038F0823009F473
:1004600093C0833009F4DCC0B6CF0E9470038823A8
:1004700009F4B1CFE8E7F1E09181908322812183F3
:10048000828330ED380F3A3090F5482F66E0CE0188
:1004900001960E947201863019F5CE0107960E94DE
:1004A000730046E050E0BE01695F7F4FCE010196C8
:1004B0000E94EE03892B21F481E080937B018BCF96
:1004C0000E940F0185E291E00E9453012FEF8DE31E
:1004D00099E4215080409040E1F700C000007BCFBC
:1004E0000E940F0188E091E00E94530174CF913483
:1004F00009F071CF223409F06ECF813409F06BCF4F
:1005000083E080937B0167CF0E94E703882321F07B
:1005100082E080937B015FCF0E94700390ED980F83
:100520009A3008F058CF482F66E0CE0101960E941D
:100530007201863029F5CE0107960E94730046E0CD
:1005400050E0BE01695F7F4FCE0101960E94EE032D
:10055000892B19F410927B013ECF0E940F0185E296
:1005600091E00E9453012FEF8DE399E421508040E8
:100570009040E1F700C000008FEF809300012BCF87
:100580008FEF8093000127CF8091760190917701C2
:1005900001969093770180937601883C910540F015
:1005A000109277011092760195B180E3892785B981
:1005B0000E94700390ED980F9A3008F00CCF482FEE
:1005C00066E0CE0101960E947201863029F5CE01C7
:1005D00007960E94730046E050E0BE01695F7F4FBE
:1005E000CE0101960E94EE03892B19F410927B0133
:1005F000F2CE0E940F0185E291E00E9453012FEF9D
:100600008DE399E4215080409040E1F700C0000064
:100610008FEF80930001DFCE8FEF80930001DBCE60
:100620000E940F0186E391E00E94530140E066E0E2
:10063000CE0107960E947201863019F010927B015C
:10064000CACE0E940F0186E491E00E94530140E06F
:1006500066E0CE0101960E947201863019F0109278
:100660007B01B9CE46E050E0BE016F5F7F4FCE0107
:1006700007960E94EE03892BA1F4CE0107960E94F3
:1006800053000E940F0180E591E00E9453012FEF7B
:100690008DE399E4215080409040E1F700C00000D4
:1006A0000FC00E940F0180E691E00E9453012FEFDE
:1006B0008DE399E4215080409040E1F700C00000B4
:1006C00010927B0188CE8AB1806F8AB98BB1806F1E
:1006D0008BB984B1807F84B985B18F6085B9089565
:1006E00040E050E080E036C09BB1906F9BB99BB179
:1006F000E42FF0E0BF016C5F7F4F21E030E002C0EB
:10070000220F331F6A95E2F7209529232BB9A7EC16
:10071000B0E01197F1F700C0000090E018C023B1DD
:10072000692F70E030E0092E02C0359527950A94B4
:10073000E2F720FD0BC0EE0FFF1FEE0FFF1FEA597F
:10074000FE4FE60FF71F808151E003C09F5F94309A
:1007500030F34F5F443010F4552331F29BB1906F6A
:100760009BB9882381F090917C01891781F0BFEFBC
:1007700029EF30E0B15020403040E1F700C00000E8
:1007800080937C01089510927C0180E0089580E0C0
:1007900008951F920F920FB60F9211248F9381E04C
:1007A00080937D018F910F900FBE0F901F90189531
:1007B0008AB18B7F8AB98BB184608BB9E9E6F0E0AE
:1007C0008081836080838DB381608DBB0895F894B0
:1007D00080917D0110927D0178940895FB01DC01E8
:1007E00004C08D910190801921F441505040C8F708
:1007F000881B990B0895F999FECF92BD81BDF89A97
:10080000992780B50895262FF999FECF1FBA92BD7A
:1008100081BD20BD0FB6F894FA9AF99A0FBE0196E1
:060820000895F894FFCFDB
:10082600FF3132333435360044657361726D61646D
:100836006F0041726D61646F0020202020414C41A1
:10084600524D45210053656E686120496E636F7293
:100856007265746121004E6F76612073656E686102
:10086600202836293A00436F6E6669726D653A0034
:1008760053656E686120616C746572616461210004
:100886004572726F21003132334134353642373882
:0608960039432A3023441F
:00000001FF
