:100000000C9434000C9496040C9451000C94510000
:100010000C9451000C9451000C9451000C940A045F
:100020000C9451000C9451000C9451000C9451000C
:100030000C9451000C9451000C945D040C945100EC
:100040000C9451000C9451000C9451000C945100EC
:100050000C9451000C9451000C9451000C945100DC
:100060000C9451000C94510011241FBECFEFD8E026
:10007000DEBFCDBF12E0A0E0B1E0E0E6FEE002C0EE
:1000800005900D92A233B107D9F722E0A2E3B2E0C6
:1000900001C01D92A035B207E1F70E94B4010C9493
:1000A0002E070C9400000F931F93CF938C01C0E098
:1000B00009C08C2F90E0F801E80FF91F60810E94C1
:1000C0002007CF5FC630A8F386E090E00E941807B3
:1000D0008A3A29F06AEA86E090E00E942007CF91F0
:1000E0001F910F910895EF92FF920F931F93CF935B
:1000F0007C01C0E00AC08C2F90E08701080F191F17
:100100000E941807F8018083CF5FC630A0F3CF911B
:100110001F910F91FF90EF90089586E090E00E946C
:10012000180791E08A3A09F090E0892F089580E05D
:1001300090E005C00196813D27E0920730F42091C0
:10014000BC002223BCF780E0089581E0089510925E
:10015000B90088E48093B80084E08093BC000895DF
:1001600084EA8093BC000E949700089584E98093FC
:10017000BC0008958093BB0084E88093BC000E947B
:100180009700811107C09091B900987F983219F0BB
:1001900081E0089581E00895CF93C82F0E94B000B8
:1001A0008EE40E94BA008C2F88600E94BA000E94E0
:1001B000B600CF910895CF93807FC82FC62B8C2F88
:1001C00084600E94CC0085E08A95F1F700008C2FB6
:1001D0008B7F0E94CC0087EC90E00197F1F700C084
:1001E0000000CF910895CF93C82F60E0807F0E94D8
:1001F000DB0060E08C2F8295807F0E94DB00CF9136
:100200000895CF93C82F61E0807F0E94DB0061E0FA
:100210008C2F8295807F0E94DB00CF91089581E032
:100220000E94F3008FE39FE10197F1F700C0000007
:1002300008952FEF80E792E0215080409040E1F751
:1002400000C0000060E080E30E94DB008FE19EE4DC
:100250000197F1F700C0000060E080E30E94DB003E
:100260009FEF22E587E0915020408040E1F700C0F9
:10027000000060E080E30E94DB0060E080E20E941A
:10028000DB008FE99FE00197F1F700C0000088E2F2
:100290000E94F3008CE00E94F30086E00E94F300CD
:1002A0000E940F0108950F931F93CF93DF938C014A
:1002B000C0E0D0E003C00E9401012196F801EC0FDC
:1002C000FD1F80818111F7CFDF91CF911F910F9199
:1002D0000895811102C080E801C080EC860F0E9461
:1002E000F30008950F931F93CF93DF938C01D62FC4
:1002F00080ED840F8A3058F4F801408360E081E09B
:100300000E9469018AE20E940101C1E001C0C0E0CF
:100310000E944F048823E1F390ED980F9A3078F40F
:10032000CD17B0F7F801EC0FF11D80836C2F81E041
:100330000E9469018AE20E940101CF5FE9CF843403
:1003400059F4CC2349F0C1506C2F81E00E9469011F
:1003500080E20E940101DCCF8334D1F68C2FDF9143
:10036000CF911F910F910895CF93DF93CDB7DEB753
:100370002C970FB6F894DEBF0FBECDBF0E94A7002A
:100380000E94190160E875E280E090E00E94CC04D0
:100390000E9482040E9437040E94A5048AB18860EA
:1003A0008AB984B1806384B90E948D00811109C02B
:1003B00087E091E00E9453006AEA86E090E00E94A4
:1003C000200778948EE091E00E94680510923E022A
:1003D0000E940F0189E291E00E94530189E291E0BD
:1003E0000E94680585B1806285B985B18F7E85B927
:1003F0008BB1877F8BB980913E029091060189175E
:10040000A1F1809306018130C1F018F0823049F1EA
:100410002CC00E940F0189E291E00E94530183E306
:1004200091E00E94680585B1806285B985B18F7EB3
:1004300085B98BB1877F8BB918C00E940F0185E405
:1004400091E00E9453018CE491E00E94680585B11F
:10045000806185B985B18F7D85B98BB1877F8BB977
:1004600004C08BE591E00E94680580913E028130D6
:1004700009F464C020F0823009F423C1BCCF0E948B
:100480004F04882309F4B7CFE2E3F2E0918190832F
:1004900022812183828330ED380F3A30F0F5482FE6
:1004A00066E0CE0101960E947201863059F5CE01B8
:1004B00007960E94730046E050E0BE01695F7F4FDF
:1004C000CE0101960E940905892B41F48AE691E04C
:1004D0000E94680581E080933E028DCF0E940F014B
:1004E00084E891E00E94530183E891E00E9468054E
:1004F0002FEF8DE399E4215080409040E1F700C058
:10050000000079CF0E940F0189E291E00E9453011F
:1005100089E291E00E9468056ECF913409F06BCFBB
:10052000223409F068CF813409F065CF85E991E084
:100530000E94680582E080933E025DCF80913D027B
:10054000811128C00E94B404882321F181E08093A6
:100550003D020E948B046093390270933A028093AB
:100560003B0290933C020E948B046093350270938F
:10057000360280933702909338028BB188608BB932
:100580000E940F0186EB91E00E94530186EB91E0FF
:100590000E94680580913D02882309F44DC00E94A5
:1005A0008B040091390210913A0220913B02309164
:1005B0003C02DC01CB01801B910BA20BB30B803101
:1005C0009742A105B105A8F010923D028BB1877F3B
:1005D0008BB90E940F0185E491E00E94530185E4EC
:1005E00091E00E94680585B1806185B985B18F7DF4
:1005F00085B90E948B04009135021091360220913A
:10060000370230913802DC01CB01801B910BA20B29
:10061000B30B843F9140A105B10570F00E948B049B
:1006200060933502709336028093370290933802BC
:1006300095B180E3892785B90E944F0490ED980F0A
:100640009A3008F0D8CE482F66E0CE0101960E947D
:100650007201863091F5CE0107960E94730046E044
:1006600050E0BE01695F7F4FCE0101960E940905EF
:10067000892B61F48EEB91E00E94680510923D0297
:100680008BB1877F8BB910923E02B5CE0E940F01CD
:1006900084E891E00E94530183E891E00E9468059C
:1006A0008FEF9DE329E4815090402040E1F700C0A6
:1006B00000008FEF809306019ECE8FEF809306019E
:1006C0009ACE0E940F018AED91E00E9453018AEDBB
:1006D00091E00E94680540E066E0CE0107960E9426
:1006E0007201863019F010923E0285CE0E940F01F1
:1006F0008BEE91E00E9453018AEE91E00E94680522
:1007000040E066E0CE0101960E947201863019F049
:1007100010923E0270CE46E050E0BE016F5F7F4F08
:10072000CE0107960E940905892BC1F4CE010796D8
:100730000E9453000E940F0186EF91E00E94530136
:1007400085EF91E00E9468058FEF9DE329E48150D9
:1007500090402040E1F700C0000017C086E092E022
:100760000E9468050E940F018BE192E00E945301F4
:100770008AE192E00E9468058FEF9DE329E48150B1
:1007800090402040E1F700C0000010923E0233CEBE
:1007900030E039C08BB1806F8BB92BB1632F70E023
:1007A000AB014C5F5F4F81E090E002C0880F991F62
:1007B0004A95E2F7809582238BB987EC90E0019708
:1007C000F1F700C0000020E01BC083B1422F50E0D1
:1007D00090E0022E02C0959587950A94E2F780FD7D
:1007E0000EC08BB1806F8BB9660F771F660F771FB6
:1007F0006F5D7D4FFB01E40FF51F808108952F5F32
:10080000243018F33F5F343028F28BB1806F8BB9FE
:1008100080E008951F920F920FB60F9211242F932C
:100820003F934F935F936F937F938F939F93AF9378
:10083000BF93EF93FF930E94C803882329F0909100
:100840003F0289138093400280933F02FF91EF9112
:10085000BF91AF919F918F917F916F915F914F91D8
:100860003F912F910F900FBE0F901F9018958AB156
:10087000806F8AB98BB1806F8BB984B1807F84B966
:1008800085B18F6085B982E08093B00097E0909346
:10089000B1009CE99093B300809370000895CF93CA
:1008A000C0914002CC2331F0109240028C2F90E096
:1008B0000E9461058C2FCF9108951F920F920FB661
:1008C0000F9211248F939F93AF93BF938091410216
:1008D00090914202A0914302B09144020196A11D61
:1008E000B11D8093410290934202A0934302B093C2
:1008F0004402BF91AF919F918F910F900FBE0F90C7
:100900001F90189582E084BD93E095BD99EF97BD47
:1009100080936E000895F8946091410270914202B4
:100920008091430290914402789408951F920F920F
:100930000FB60F9211248F9381E0809345028F911F
:100940000F900FBE0F901F9018958AB18B7F8AB9B8
:100950008BB184608BB9E9E6F0E0808183608083AD
:100960008DB381608DBB0895F894809145021092FB
:100970004502789408959091C00095FFFCCF809334
:10098000C60080E090E008958091C0008823E4F7DD
:100990008091C60090E008959B01AC0160E472E490
:1009A0008FE090E00E94E704215031093093C500A8
:1009B0002093C40088E18093C10086E08093C20048
:1009C00064EC74E08BEB94E00E9416050895A1E2BC
:1009D0001A2EAA1BBB1BFD010DC0AA1FBB1FEE1FB9
:1009E000FF1FA217B307E407F50720F0A21BB30B04
:1009F000E40BF50B661F771F881F991F1A9469F780
:100A000060957095809590959B01AC01BD01CF01DB
:100A10000895FB01DC0104C08D910190801921F43F
:100A200041505040C8F7881B990B08950F931F93AE
:100A3000CF93DF93009731F46115710519F480E0CD
:100A400090E03AC08B01EC016EE070E081E090E054
:100A50000E949805FC01892B91F380E8838301159E
:100A6000110571F01387028781E883838091460224
:100A700090914702892B21F4F0934702E0934602BC
:100A80002097C9F0D187C08783818260838380915A
:100A9000480290914902892B71F4F0934902E09346
:100AA000480280914A0290914B02892B21F4F093E5
:100AB0004B02E0934A02CF01DF91CF911F910F913A
:100AC000089560914802709149020E94DC060895E1
:100AD0000F931F93CF93DF93E0914802F091490267
:100AE000238121FF1BC08C01D0E0C0E0F80181917F
:100AF0008F016091480270914902DB011896ED91D7
:100B0000FC911997882331F00995892B79F3DFEF50
:100B1000CFEFECCF8AE00995892B19F08FEF9FEF8B
:100B200002C08D2F9C2FDF91CF911F910F910895BF
:100B30000F931F93CF93DF93869F8001879F100DA4
:100B4000969F100D1124C8010E94B405EC01009776
:100B500029F0A80160E070E00E94D506CE01DF9187
:100B6000CF911F910F9108950F931F93CF93DF9310
:100B70008230910510F482E090E0E0914E02F09115
:100B80004F0220E030E0A0E0B0E0309719F1408162
:100B900051810281138148175907C8F084179507BE
:100BA00069F4109731F012960C93129713961C93D8
:100BB00027C000934E0210934F0222C02115310529
:100BC00019F04217530718F49A01BD01EF01DF0134
:100BD000F801DBCF21153105F9F0281B390B243042
:100BE000310580F48A819B816115710521F0FB013B
:100BF0009383828304C090934F0280934E02FE0140
:100C0000329644C0FE01E20FF31F8193919322506C
:100C10003109398328833AC020914C0230914D022A
:100C2000232B41F4209102013091030130934D02B6
:100C300020934C02209100013091010121153105D2
:100C400041F42DB73EB74091040150910501241B9A
:100C5000350BE0914C02F0914D02E217F307A0F43E
:100C60002E1B3F0B2817390778F0AC014E5F5F4F02
:100C70002417350748F04E0F5F1F50934D024093E5
:100C80004C028193919302C0E0E0F0E0CF01DF914C
:100C9000CF911F910F910895CF93DF93009709F49F
:100CA00081C0FC01329713821282A0914E02B09152
:100CB0004F02109781F420813181820F931F209180
:100CC0004C0230914D022817390751F5F0934D022F
:100CD000E0934C0267C0ED0120E030E0CE17DF0763
:100CE00040F44A815B819E0141155105F1F0EA0112
:100CF000F5CFD383C28340815181840F951FC817DC
:100D0000D90759F488819981840F951F02969183A0
:100D100080838A819B81938382832115310529F405
:100D2000F0934F02E0934E023DC0E901FB83EA835A
:100D300049915991C40FD51FEC17FD0761F48081CB
:100D40009181840F951F0296E9019983888382819E
:100D500093819B838A83E0E0F0E012968D919C91D1
:100D60001397009719F0FD01DC01F7CF8D919C914D
:100D700011979D012E5F3F4F820F931F20914C02D0
:100D800030914D022817390769F4309729F41092F1
:100D90004F0210924E0202C013821282B0934D0293
:100DA000A0934C02DF91CF910895DC0101C06D93B7
:100DB00041505040E0F708950F931F93CF93DF9376
:100DC000FB01238121FD03C08FEF9FEF2CC022FF89
:100DD00016C046815781248135814217530744F458
:100DE000A081B1819D012F5F3F4F318320838C9380
:100DF000268137812F5F3F4F3783268314C08B01B5
:100E0000EC01FB010084F185E02D0995892BE1F6C9
:100E1000D80116968D919C911797019617969C93E1
:100E20008E931697CE01DF91CF911F910F91089568
:100E3000F999FECF92BD81BDF89A992780B50895A2
:100E4000262FF999FECF1FBA92BD81BD20BD0FB6E6
:100E5000F894FA9AF99A0FBE01960895F894FFCF84
:100E6000000050022000FF31323334353600536920
:100E70007374656D6120646520416C61726D6520DD
:100E8000496E69636961646F0044657361726D6185
:100E9000646F0045737461646F3A20444553415256
:100EA0004D41444F0041726D61646F004573746140
:100EB000646F3A2041524D41444F00457374616460
:100EC0006F3A20434F4E464947000A53656E6861AA
:100ED00020636F7272657461202D2041726D616EA6
:100EE000646F000A53656E686120496E636F7272A9
:100EF000657461210053657175656E636961204198
:100F0000424120646574656374616461202D2043EF
:100F10006F6E66696700414C41524D4521000A538E
:100F2000656E686120636F7272657461202D204464
:100F3000657361726D616E646F004E6F76612073D0
:100F4000656E6861202836293A000A436F6E66692B
:100F5000726D653A000A53656E686120616C746554
:100F600072616461210053656E686173206E616F08
:100F700020636F6E666572656D000A4572726F213F
:100F8000003132334134353642373839432A302341
:020F900044001B
:00000001FF
