:100000000C9434000C9419050C9451000C9451007C
:100010000C9451000C9451000C9451000C948D04DC
:100020000C9451000C9451000C9451000C9451000C
:100030000C9451000C9451000C94E0040C94510069
:100040000C9451000C9451000C9451000C945100EC
:100050000C9451000C9451000C9451000C945100DC
:100060000C9451000C94510011241FBECFEFD8E026
:10007000DEBFCDBF12E0A0E0B1E0EAEAF4E102C0E9
:1000800005900D92AE38B107D9F722E0AEE8B2E0A4
:1000900001C01D92AC3AB207E1F70E94CE010C9468
:1000A000530A0C9400000F931F93CF938C01C0E070
:1000B00009C08C2F90E0F801E80FF91F60810E94C1
:1000C0000E0ACF5FC630A8F386E090E00E94060AD1
:1000D0008A3A29F06AEA86E090E00E940E0ACF91FF
:1000E0001F910F910895EF92FF920F931F93CF935B
:1000F0007C01C0E00AC08C2F90E08701080F191F17
:100100000E94060AF8018083CF5FC630A0F3CF912A
:100110001F910F91FF90EF90089586E090E00E946C
:10012000060A91E08A3A09F090E0892F089580E06C
:1001300090E005C00196813D27E0920730F42091C0
:10014000BC002223BCF780E0089581E0089510925E
:10015000B90088E48093B80084E08093BC000895DF
:1001600084EA8093BC000E949700089584E98093FC
:10017000BC0008958093BB0084E88093BC000E947B
:100180009700811107C09091B900987F983219F0BB
:1001900081E0089581E00895CF93C82F0E94B000B8
:1001A0008EE40E94BA008C2F88600E94BA000E94E0
:1001B000B600CF910895CF93807FC82FC62B8C2F88
:1001C00084600E94CC0085E08A95F1F700008C2FB6
:1001D0008B7F0E94CC0087EC90E00197F1F700C084
:1001E0000000CF910895CF93C82F60E0807F0E94D8
:1001F000DB0060E08C2F8295807F0E94DB00CF9136
:100200000895CF93C82F61E0807F0E94DB0061E0FA
:100210008C2F8295807F0E94DB00CF91089581E032
:100220000E94F3008FE39FE10197F1F700C0000007
:1002300008952FEF80E792E0215080409040E1F751
:1002400000C0000060E080E30E94DB008FE19EE4DC
:100250000197F1F700C0000060E080E30E94DB003E
:100260009FEF22E587E0915020408040E1F700C0F9
:10027000000060E080E30E94DB0060E080E20E941A
:10028000DB008FE99FE00197F1F700C0000088E2F2
:100290000E94F3008CE00E94F30086E00E94F300CD
:1002A0000E940F0108950F931F93CF93DF938C014A
:1002B000C0E0D0E003C00E9401012196F801EC0FDC
:1002C000FD1F80818111F7CFDF91CF911F910F9199
:1002D0000895811102C080E801C080EC860F0E9461
:1002E000F30008950F931F93CF93DF938C01D62FC4
:1002F00080ED840F8A3058F4F801408360E081E09B
:100300000E9469018AE20E940101C1E001C0C0E0CF
:100310000E94D2048823E1F390ED980F9A3078F48C
:10032000CD17B0F7F801EC0FF11D80836C2F81E041
:100330000E9469018AE20E940101CF5FE9CF843403
:1003400079F4CC2369F0C1506C2F81E00E946901DF
:1003500080E20E94010187E091E00E940106D8CF6F
:100360008A3281F48EE091E00E94010608C0C150FB
:100370006C2F81E00E94690180E20E940101C1119D
:10038000F6CFC6CF833221F68BE191E00E940106C1
:100390008C2FDF91CF911F910F910895CF93DF9311
:1003A000CDB7DEB72C970FB6F894DEBF0FBECDBF2A
:1003B0000E94A7000E94190160E875E280E090E0C9
:1003C0000E944F050E9405050E94BA040E9428055C
:1003D0008AB188608AB984B1806284B90E948D0034
:1003E000811109C08FE391E00E9453006AEA86E020
:1003F00090E00E940E0A789486E491E00E94010643
:1004000010929A020E940F0181E691E00E9453012E
:1004100081E691E00E9401068BB1877F8BB98091C4
:100420009A0290910601891709F456C0809306013B
:100430008130C1F030F0823031F1833009F445C0B1
:100440004BC00E940F0181E691E00E9453018BE6B0
:1004500091E00E94010685B1806285B98BB1877FEA
:100460008BB93AC00E940F018DE791E00E945301C1
:1004700084E891E00E94010685B1806285B98BB164
:10048000877F8BB929C00E940F0183E991E00E9408
:1004900053018FE991E00E9401068BB188608BB90E
:1004A0000E940E05609396027093970280939802C3
:1004B000909399020E940E056093920270939302AA
:1004C000809394029093950207C08EEA91E00E9477
:1004D000010685B1806285B980919A02813009F464
:1004E000A8C038F0823009F4ECC0833009F469C147
:1004F00096CF0E94D204882309F491CFEEE8F2E06F
:100500009181908392819183828320ED280F2A30FC
:10051000F0F5482F66E0CE0101960E947201863008
:1005200059F5CE0107960E94730046E050E0BE01E7
:10053000695F7F4FCE0101960E948C05892B41F4A3
:100540008DEB91E00E94010681E080939A0267CFD3
:100550000E940F0187ED91E00E94530186ED91E02A
:100560000E9401062FEF8DE399E4215080409040D6
:10057000E1F700C0000053CF0E940F0181E691E037
:100580000E94530181E691E00E94010648CF913418
:10059000C9F48134B9F488EE91E00E9401060E940A
:1005A0000F0181E092E00E9453012FEF83ED90E371
:1005B000215080409040E1F700C0000083E080932C
:1005C0009A022DCF923409F02ACF823409F027CF36
:1005D00081E090919102911180E0809391028823B3
:1005E00019F08CE291E002C08BE391E09F938F932E
:1005F00088E092E09F938F930E94E4050E940F0190
:10060000809191020F900F900F900F90882319F016
:1006100086E291E002C085E391E00E9453012FEF52
:100620008DE399E4215080409040E1F700C0000044
:10063000F6CE0E943705882321F082E080939A024B
:10064000EECE0E94D20490ED980F9A3008F0E7CEDB
:10065000482F66E0CE0101960E947201863009F0B3
:10066000DECECE0107960E94730046E050E0BE0148
:10067000695F7F4FCE0101960E948C05892B39F46A
:100680008AE192E00E94010610929A02C8CE0E946E
:100690000F0187ED91E00E94530186ED91E00E94E9
:1006A00001062FEF8DE399E4215080409040E1F75F
:1006B00000C000000E940F018DE791E00E945301ED
:1006C000AECE80919102811119C00E940E05009159
:1006D0009602109197022091980230919902DC01C4
:1006E000CB01801B910BA20BB30B80319742A1056C
:1006F000B10520F081E080939A0291CE0E940E0510
:1007000000919202109193022091940230919502EF
:10071000DC01CB01801B910BA20BB30B843F9140FA
:10072000A105B10570F00E940E05609392027093CE
:100730009302809394029093950295B180E2892769
:1007400085B90E94D20490ED980F9A3008F067CED8
:10075000482F66E0CE0101960E947201863009F0B2
:100760005ECECE0107960E94730046E050E0BE01C7
:10077000695F7F4FCE0101960E948C05892B39F469
:100780008AE192E00E94010610929A0248CE0E94ED
:100790000F0187ED91E00E94530186ED91E00E94E8
:1007A00001068FEF9DE329E4815090402040E1F75E
:1007B00000C000000E940F0183E991E00E945301F4
:1007C0002ECE0E940F0186E392E00E94530186E341
:1007D00092E00E94010640E066E0CE0107960E948A
:1007E0007201863019F010929A0219CE0E940F0100
:1007F00087E492E00E94530186E492E00E940106A1
:1008000040E066E0CE0101960E947201863019F048
:1008100010929A0204CE46E050E0BE016F5F7F4F17
:10082000CE0107960E948C05892BC1F4CE01079654
:100830000E9453000E940F0182E592E00E94530142
:1008400081E592E00E9401068FEF9DE329E481504B
:1008500090402040E1F700C0000017C082E692E01F
:100860000E9401060E940F0187E792E00E94530157
:1008700086E792E00E9401068FEF9DE329E4815014
:1008800090402040E1F700C0000010929A02C7CDCE
:1008900060E03CC085B18F6085B925B1E62FF0E0FE
:1008A00088E090E0062E02C0959587950A94E2F7BD
:1008B0008095822385B987EC90E00197F1F700C01D
:1008C000000040E020C059B1A42FB0E080E890E0E3
:1008D0009C01042E02C0359527950A94E2F7852FD6
:1008E00090E082239323892B69F485B18F6085B9C9
:1008F000EE0FFF1FEE0FFF1FE358FD4FAE0FBF1FA0
:100900008C9108954F5F4430F0F26F5F643010F2C5
:1009100085B18F6085B980E008951F920F920FB660
:100920000F9211242F933F934F935F936F937F9375
:100930008F939F93AF93BF93EF93FF930E944804CD
:10094000882329F090919B02891380939C028093C5
:100950009B02FF91EF91BF91AF919F918F917F91FA
:100960006F915F914F913F912F910F900FBE0F901C
:100970001F90189584B18F6084B985B18F6085B957
:100980008AB18F708AB98BB1806F8BB982E0809306
:10099000B00097E09093B1009CE99093B3008093EE
:1009A00070000895CF93C0919C02CC2331F0109237
:1009B0009C028C2F90E00E94FA058C2FCF91089515
:1009C0001F920F920FB60F9211248F939F93AF93A4
:1009D000BF9380919D0290919E02A0919F02B09141
:1009E000A0020196A11DB11D80939D0290939E02CD
:1009F000A0939F02B093A002BF91AF919F918F915E
:100A00000F900FBE0F901F90189582E084BD93E069
:100A100095BD99EF97BD80936E000895F89460910D
:100A20009D0270919E0280919F029091A002789405
:100A300008951F920F920FB60F9211248F9381E0A9
:100A40008093A1028F910F900FBE0F901F90189569
:100A50008AB18B7F8AB98BB18B7F8BB9E9E6F0E0E5
:100A60008081836080838DB381608DBB0895F8940D
:100A70008091A1021092A102789408959091C000F3
:100A800095FFFCCF8093C60080E090E008958091B0
:100A9000C0008823E4F78091C60090E008959B0190
:100AA000AC0160E472E48FE090E00E946A0521509E
:100AB00031093093C5002093C40088E18093C100C0
:100AC00086E08093C20067E475E08EE395E00E94C3
:100AD00099050895A1E21A2EAA1BBB1BFD010DC0AA
:100AE000AA1FBB1FEE1FFF1FA217B307E407F507DE
:100AF00020F0A21BB30BE40BF50B661F771F881FBA
:100B0000991F1A9469F760957095809590959B014F
:100B1000AC01BD01CF010895FB01DC0104C08D9142
:100B20000190801921F441505040C8F7881B990B5F
:100B300008950F931F93CF93DF93009731F46115BE
:100B4000710519F480E090E03AC08B01EC016EE091
:100B500070E081E090E00E941208FC01892B91F383
:100B600080E883830115110571F01387028781E8FE
:100B700083838091A2029091A302892B21F4F093A8
:100B8000A302E093A2022097C9F0D187C087838196
:100B9000826083838091A4029091A502892B71F4D5
:100BA000F093A502E093A4028091A6029091A7027F
:100BB000892B21F4F093A702E093A602CF01DF91E5
:100BC000CF911F910F910895A0E0B0E0EAEEF5E01B
:100BD0000C942C0AAE014B5F5F4FFA016191719149
:100BE000AF018091A4029091A5020E943106E2E03B
:100BF0000C94480A6091A4027091A5020E946C09AD
:100C000008950F931F93CF93DF93E091A402F09187
:100C1000A502238121FF1BC08C01D0E0C0E0F801B8
:100C200081918F016091A4027091A502DB01189659
:100C3000ED91FC911997882331F00995892B79F36F
:100C4000DFEFCFEFECCF8AE00995892B19F08FEF1A
:100C50009FEF02C08D2F9C2FDF91CF911F910F919D
:100C60000895ABE0B0E0E7E3F6E00C941C0A6C01F9
:100C70007B018A01FC0117821682838181FFCCC12E
:100C8000CE0101963C01F6019381F70193FD859118
:100C900093FF81917F01882309F4BAC1853239F429
:100CA00093FD859193FF81917F01853229F4B601EF
:100CB00090E00E946C09E7CF912C212C312CFFE1B0
:100CC000F315D8F08B3279F038F4803279F0833232
:100CD000A1F4232D20611DC08D3261F0803369F4B1
:100CE000232D216016C0832D8260382EE32DE46011
:100CF0003E2E2AC0F32DF8601DC037FC2DC020ED1C
:100D0000280F2A3040F08E32B9F436FC81C1232DF1
:100D10002064322E19C036FE06C08AE0989E200D4F
:100D20001124922E11C0EAE02E9E200D1124222EB5
:100D3000F32DF0623F2E08C08C3621F4832D80689D
:100D4000382E02C0883641F4F70193FD859193FF58
:100D500081917F018111B3CF982F9F7D955493305E
:100D600028F40C5F1F4F9FE399830DC0833631F049
:100D7000833771F0833509F059C021C0F8018081B3
:100D800089830E5F1F4F88248394912C530113C0D5
:100D90002801F2E04F0E511CF801A080B18036FE10
:100DA00003C0692D70E002C06FEF7FEFC5010E94A4
:100DB00061094C018201F32DFF773F2E16C02801F7
:100DC00022E0420E511CF801A080B18036FE03C023
:100DD000692D70E002C06FEF7FEFC5010E944F09DF
:100DE0004C01F32DF0683F2E820133FC1BC0822D95
:100DF00090E088169906B0F4B60180E290E00E9477
:100E00006C092A94F4CFF50137FC859137FE819166
:100E10005F01B60190E00E946C0921102A9421E044
:100E2000821A91088114910471F7E8C0843611F098
:100E3000893641F5F80137FE07C0608171818281F2
:100E400093810C5F1F4F08C060817181072E000CD9
:100E5000880B990B0E5F1F4FF32DFF763F2E97FFE8
:100E600009C090958095709561957F4F8F4F9F4FEA
:100E7000F0683F2E2AE030E0A3010E94A809882EE6
:100E8000861845C0853731F4232D2F7EB22E2AE0F7
:100E900030E025C0932D997FB92E8F36C1F018F41C
:100EA000883579F0B5C0803719F0883721F0B0C0A7
:100EB000E92FE061BE2EB4FE0DC0FB2DF460BF2E05
:100EC00009C034FE0AC0292F2660B22E06C028E0D1
:100ED00030E005C020E130E002C020E132E0F8015E
:100EE000B7FE07C060817181828193810C5F1F4FC3
:100EF00006C06081718180E090E00E5F1F4FA3010A
:100F00000E94A809882E8618FB2DFF773F2E36FEFB
:100F10000DC0232D2E7FA22E891458F434FE0BC051
:100F200032FC09C0832D8E7EA82E05C0B82CA32CC0
:100F300003C0B82C01C0B92CA4FE0FC0FE01E80DFF
:100F4000F11D8081803321F49A2D997EA92E09C04C
:100F5000A2FE06C0B394B39404C08A2D867809F02B
:100F6000B394A3FC11C0A0FE06C0B21488F4280CF0
:100F7000922C9B180EC0B21460F4B60180E290E08F
:100F80000E946C09B394F7CFB21418F42B1802C066
:100F9000982C212CA4FE10C0B60180E390E00E94A2
:100FA0006C09A2FE17C0A1FC03C088E790E002C054
:100FB00088E590E0B6010CC08A2D867859F0A1FE34
:100FC00002C08BE201C080E2A7FC8DE2B60190E096
:100FD0000E946C09891438F4B60180E390E00E9405
:100FE0006C099A94F7CF8A94F301E80DF11D808182
:100FF000B60190E00E946C098110F5CF222009F41F
:1010000042CEB60180E290E00E946C092A94F6CFAD
:10101000F6018681978102C08FEF9FEF2B96E2E168
:101020000C94380A0F931F93CF93DF93869F800110
:10103000879F100D969F100D1124C8010E942E0845
:10104000EC01009729F0A80160E070E00E945A09C5
:10105000CE01DF91CF911F910F9108950F931F93B0
:10106000CF93DF938230910510F482E090E0E0911D
:10107000AA02F091AB0220E030E0A0E0B0E03097AF
:1010800019F1408151810281138148175907C8F035
:101090008417950769F4109731F012960C93129704
:1010A00013961C9327C00093AA021093AB0222C090
:1010B0002115310519F04217530718F49A01BD01A3
:1010C000EF01DF01F801DBCF21153105F9F0281B15
:1010D000390B2430310580F48A819B8161157105BB
:1010E00021F0FB019383828304C09093AB02809331
:1010F000AA02FE01329644C0FE01E20FF31F819363
:10110000919322503109398328833AC02091A80253
:101110003091A902232B41F4209102013091030167
:101120003093A9022093A80220910001309101017F
:101130002115310541F42DB73EB74091040150917E
:101140000501241B350BE091A802F091A902E217DA
:10115000F307A0F42E1B3F0B2817390778F0AC01DA
:101160004E5F5F4F2417350748F04E0F5F1F5093B7
:10117000A9024093A8028193919302C0E0E0F0E0BD
:10118000CF01DF91CF911F910F910895CF93DF93FE
:10119000009709F481C0FC01329713821282A0915A
:1011A000AA02B091AB02109781F420813181820FA5
:1011B000931F2091A8023091A9022817390751F5F1
:1011C000F093A902E093A80267C0ED0120E030E0AF
:1011D000CE17DF0740F44A815B819E01411551051E
:1011E000F1F0EA01F5CFD383C28340815181840FAE
:1011F000951FC817D90759F488819981840F951FC5
:101200000296918380838A819B81938382832115B7
:10121000310529F4F093AB02E093AA023DC0E90145
:10122000FB83EA8349915991C40FD51FEC17FD0741
:1012300061F480819181840F951F0296E901998361
:101240008883828193819B838A83E0E0F0E0129619
:101250008D919C911397009719F0FD01DC01F7CF58
:101260008D919C9111979D012E5F3F4F820F931F8F
:101270002091A8023091A9022817390769F4309704
:1012800029F41092AB021092AA0202C013821282B9
:10129000B093A902A093A802DF91CF910895FC0119
:1012A0000590615070400110D8F7809590958E0F91
:1012B0009F1F0895DC0101C06D9341505040E0F73D
:1012C0000895FC016150704001900110D8F780959D
:1012D00090958E0F9F1F08950F931F93CF93DF93C9
:1012E000FB01238121FD03C08FEF9FEF2CC022FF64
:1012F00016C046815781248135814217530744F433
:10130000A081B1819D012F5F3F4F318320838C935A
:10131000268137812F5F3F4F3783268314C08B018F
:10132000EC01FB010084F185E02D0995892BE1F6A4
:10133000D80116968D919C911797019617969C93BC
:101340008E931697CE01DF91CF911F910F91089543
:10135000FA01AA27283051F1203181F1E8946F93E6
:101360006E7F6E5F7F4F8F4F9F4FAF4FB1E03ED08C
:10137000B4E03CD0670F781F891F9A1FA11D680F2A
:10138000791F8A1F911DA11D6A0F711D811D911D5D
:10139000A11D20D009F468943F912AE0269F1124D2
:1013A0003019305D3193DEF6CF010895462F477036
:1013B000405D4193B3E00FD0C9F7F6CF462F4F7091
:1013C000405D4A3318F0495D31FD4052419302D0EF
:1013D000A9F7EACFB4E0A695979587957795679595
:1013E000BA95C9F700976105710508959B01AC0195
:1013F0000A2E06945795479537952795BA95C9F7BC
:10140000620F731F841F951FA01D0895F999FECFC9
:1014100092BD81BDF89A992780B50895262FF99934
:10142000FECF1FBA92BD81BD20BD0FB6F894FA9AC7
:10143000F99A0FBE019608952F923F924F925F92B4
:101440006F927F928F929F92AF92BF92CF92DF92D4
:10145000EF92FF920F931F93CF93DF93CDB7DEB739
:10146000CA1BDB0B0FB6F894DEBF0FBECDBF0994CD
:101470002A88398848885F846E847D848C849B8424
:10148000AA84B984C884DF80EE80FD800C811B8132
:10149000AA81B981CE0FD11D0FB6F894DEBF0FBE61
:0A14A000CDBFED010895F894FFCFD1
:1014AA000000AC022000FF44656C6574650042755B
:1014BA0066666572206C696D706F00436F6E66694F
:1014CA00726D61646F004D6F646F3A20696E666970
:1014DA006E69746F004D6F646F3A2031307300315A
:1014EA0032333435360053697374656D612064652F
:1014FA0020416C61726D6520496E69636961646F30
:10150A000044657361726D61646F00457374616450
:10151A006F3A2044455341524D41444F0041726D48
:10152A0061646F0045737461646F3A2041524D41A2
:10153A00444F0020202020414C41524D4521004576
:10154A00737461646F3A20414C41524D45004573B2
:10155A007461646F3A20434F4E464947000A536507
:10156A006E686120636F7272657461202D2041720A
:10157A006D616E646F000A53656E686120496E631F
:10158A006F7272657461210053657175656E636966
:10159A006120414120646574656374616461202D32
:1015AA0020436F6E666967000A4D6F646F20616C35
:1015BA0061726D653A2025730A000A53656E686187
:1015CA0020636F7272657461202D204465736172A5
:1015DA006D616E646F004E6F76612073656E68612F
:1015EA00202836293A000A436F6E6669726D653A99
:1015FA00000A53656E686120616C7465726164618A
:10160A00210053656E686173206E616F20636F6E8F
:10161A00666572656D000A4572726F210031323358
:0E162A004134353642373839432A30234400E4
:00000001FF
